:100000000C942A000C943F000C943F000C943F0089
:100010000C943F000C943F000C943F000C943F0064
:100020000C943F000C943F000C943F000C943F0054
:100030000C943F000C943F000C943F000C943F0044
:100040000C943F000C943F000C943F000C943F0034
:100050000C943F0011241FBECFE5D8E0DEBFCDBF1A
:1000600012E0A0E6B0E0EAEDF1E002C005900D92EA
:10007000AA35B107D9F70E9441000C94EB000C940B
:100080000000E7E3F0E080818FEF8083E4E3F0E0BD
:10009000908180830E94750088E263E040E650E032
:1000A0000E94BB0084E164E04AE650E00E94BB008D
:1000B000FFCF88BBE5E3F0E084E080838AEF90E047
:1000C0000197F1F7108208951F93182F82958F7072
:1000D00080610E945900812F8F700E9459001F91EA
:1000E0000895806B0E94590008958FEA0E9459007C
:1000F00086EA0E945900089588BBE5E3F0E086E0B7
:1001000080838AEF90E00197F1F782E08083089581
:10011000CF92DF92EF92FF920F931F93CF93DF93D3
:1001200095E0899FC0011124EC01C252D0400F2EEE
:10013000FFE5EF2EFFEFFF2EF02DE80EF91E0F2E3C
:10014000FAE7CF2EF0E0DF2EF02D86010E0D1F1DF9
:1001500088810E947C002197C017D107C9F780E0F1
:100160000E947C00DF91CF911F910F91FF90EF9043
:10017000DF90CF900895FF920F931F93CF93DF935B
:10018000F82E862F8A010E947100C8010E94DB00B0
:10019000EC018F2D0E9464008881882331F0219624
:1001A0000E94880088818823D1F7DF91CF911F9129
:1001B0000F91FF900895DC01FC01672F7191772367
:1001C000E1F7329704C07C916D9370836291AE1712
:0A01D000BF07C8F30895F894FFCFAD
:1001DA00534852454E494B2773004C4344204449E7
:1001EA0053504C4159204C49420000000000000085
:1001FA00005F00000007000700147F147F14242A00
:10020A007F2A1223130864623649552250000503D7
:10021A000000001C2241000041221C00082A1C2A5E
:10022A000808083E080800503000000808080808B6
:10023A00006060000020100804023E5149453E005B
:10024A00427F400042615149462141454B311814D1
:10025A00127F1027454545393C4A49493001710901
:10026A0005033649494936064949291E00363600EA
:10027A000000563600000008142241141414141405
:10028A0041221408000201510906324979413E7E91
:10029A001111117E7F494949363E414141227F4130
:1002AA0041221C7F494949417F090901013E4141D7
:1002BA0051327F0808087F00417F41002040413FBA
:1002CA00017F081422417F404040407F0204027FA0
:1002DA007F0408107F3E4141413E7F090909063EDD
:1002EA004151215E7F09192946464949493101018F
:1002FA007F01013F4040403F1F2040201F7F2018C0
:10030A00207F631408146303047804036151494588
:10031A004300007F4141020408102041417F000050
:10032A00040201020440404040400001020400204F
:10033A00545454787F484444383844444420384418
:10034A0044487F3854545418087E0901020814544A
:10035A00543C7F0804047800447D40002040443D1A
:10036A0000007F10284400417F40007C0418047874
:10037A007C0804047838444444387C14141408086B
:10038A001414187C7C080404084854545420043F6C
:10039A004440203C4040207C1C2040201C3C4030F3
:1003AA00403C44281028440C5050503C4464544C5F
:1003BA0044000836410000007F0000004136080072
:0A03CA0008082A1C08081C2A08086D
:00000001FF
