:1000000000100020F1250000232600002526000016
:1000100021260000212600002126000021260000C4
:1000200021260000212600002126000027260000AE
:100030002126000021260000292600002B26000092
:100040002D26000039020000312600003326000072
:100050003526000037260000610200003B26000024
:100060003D2600003F26000041260000F10200006E
:100070004526000047260000492600004B260000C8
:100080004D260000000000000000000000000000FD
:100090000000000000000000000000000000000060
:1000A0000000000000000000000000000000000050
:1000B0000000000000000000000000000000000040
:1000C0000000000000000000000000000000000030
:1000D0000000000000000000000000000000000020
:1000E0000000000000000000000000000000000010
:1000F0000000000000000000000000000000000000
:1001000010B5064C2378002B07D10548002802D0F3
:10011000044800E000BF0121217010BDD000002084
:10012000000000008440000008B5084B002B03D0FD
:100130000748084900E000BF07480168002903D0CC
:10014000064A002A00D0904708BDC04600000000C3
:1001500084400000D4000020D000002000000000F7
:10016000164B002B00D1144B9D46402292029A1A46
:10017000924600218B460F461348144A121A02F089
:100180004AFD0F4B002B00D098470E4B002B00D0A0
:1001900098470020002104460D4600200C4900220B
:1001A000002302F07BFB02F099FC2046294600F078
:1001B0002FF902F07FFBC04600000800001000206D
:1001C0000000000000000000D0000020180B0020FC
:1001D000B12A000030B587B0134C051C00290AD0A5
:1001E000201C124901F0B4FB114B201C636000235A
:1001F000A36001F070FAAA686B682D680D4900953C
:1002000002A802F02BFF02A802F096FF342300930D
:100210000123021C019302A9201C01F056FB01F0EE
:100220009BF907B030BDC046D40A00205C3A0000FC
:10023000FFFFFF00483A0000064B802252001A627E
:10024000054B1A7851424A411A70044B01221A7028
:100250007047C046FC600040F50000200000002010
:10026000064B802292001A62054B1A6801321A600E
:10027000044A01231370044A13707047FC60004065
:10028000F0000020F400002000000020F0B587B04E
:10029000134A6B4623CA23C323CA23C3114D1248F2
:1002A000012100F057FA6C46022040230126002766
:1002B000E0746946281C02932670277400F0E2FE61
:1002C000391C321C281C00F0C9FE084B8022120188
:1002D0001A606B6A02210B436B6207B0F0BDC04627
:1002E000203A0000006008400006060000E100E03F
:1002F00000B5094B02221A62084B1A6801321A60D3
:10030000074B1B78002B03D1064B1A6801321A6089
:10031000054B01221A7000BD00600840EC0000206F
:10032000F4000020F000002000000020F8B5194B78
:10033000061C1C681F1C02343B68174DA3420FD0DB
:100340006B6E9A0521D4154B1B78002B04D01448F2
:1003500002F0EAFB0121B047002000F0F7FBEBE7D9
:1003600000246B6E9A0510D4FA21201C890002F03B
:1003700029FA002907D10A4802683C32026002F0DB
:10038000D3FB0121B0470134EBE7064B00221A7082
:10039000F8BDC046EC0000200060004000000020D6
:1003A000F0000020F400002038B5051C094802F0D8
:1003B000BBFB094C2378002B0BD0291CFFF70AFF4D
:1003C00000232370054B1B78002B02D00448FFF755
:1003D000ADFF38BDF000002000000020F400002038
:1003E000D501000030B585B0074B6A46183332CBD3
:1003F00032C21B686846136001F000FDC02103484B
:1004000001F0DCFD05B030BD203A000000A0004046
:10041000F0B585B00521012000F0DAFA042000F0E3
:100420007DFA3548012100F095F902200124334E70
:10043000021C08210123C02700F0F2FB0225022044
:1004400008210022231CA740009400F0A5FBF551D1
:10045000281C356009212A1C231C00F0E1FB281C04
:1004600009210022231C009400F096FB4023042164
:10047000F3510A1C33600320002300F0D1FB204B12
:100480001026DE67032005212A1C231C00F0C8FB70
:10049000032005210022231C009400F07DFB194B52
:1004A000DE67FFF79FFF01F063FA002800D0FEE748
:1004B00001F016F8002800D0FEE7134801F0DCF840
:1004C000002800D0FEE7FFF7E1FE201CFFF76CFFDD
:1004D0006A4603AB0D48C0210A3201F08DFD039B33
:1004E000002B03D00120FFF75FFF01E001F026FBA6
:1004F000002000F02BFBEBE70072020000E100E0BF
:100500000460004000600040D40A002000A00040C9
:1005100000B5064907224B68181C1040012802D874
:100520009343012213434B6000BDC04600000C40C2
:1005300010B50949094A4418094953688C4204D83E
:1005400007218B4301210B4304E00649884201D86F
:1005500007218B43536010BDFFDB0BFF00000C40F5
:10056000FF23F4000024F40000B5114BE0225B6986
:10057000D2008021134089008B4216D007D8002B6F
:100580000FD08022520093420DD10A480EE0C021C4
:1005900089008B4203D0934205D1074806E0074803
:1005A00004E0074802E0002000E0064800BDC04625
:1005B00000800C40C0D8A700406F400140420F00AF
:1005C000809FD500C0CF6A0000B5044B5A6DD1079B
:1005D00002D41A6D0242FCD100BDC04600800C401E
:1005E00008B5104A4300916AD9400B1C03210B4007
:1005F000022B06D08B4207D0012B09D102F087F8DD
:100600000FE002F08BF80CE002F070F8400808E010
:10061000936A04308000C3400020834201D002F07E
:1006200079F808BD00800C4000B5021C0006000FE0
:100630000138012303281CD802F076F80205090FBF
:100640000D4B9A6801E00C4B5A680F230BE00B4BE3
:100650009A420DD1084B9A6EF7E7094B9A4207D19F
:10066000054B1A6F0323134001229A40131C00E02C
:100670000123181C00BDC04600800C403004080057
:100680004005140010B5031C0006000F01380C1CB7
:10069000032858D802F048F802132A418022120693
:1006A0000023144202D101335208FAE7264A1F20E0
:1006B0009168C31A0F2081430B43936043E0FFF717
:1006C00027FF802212060023144202D10133520870
:1006D000FAE71D4A1F205168C31A0F2081430B43BC
:1006E000536002F003F8FFF723FF2CE0174A934210
:1006F00029D10420FFF768FF80221206002314424C
:1007000002D101335208FAE70F4A1F20916EC31A33
:100710000F2081430B43936615E00D4A934212D19B
:100720004020FFF751FF802212060023144202D11D
:1007300001335208FAE7044A1F20116FC31A03203D
:1007400081430B43136710BD00800C403004080048
:100750004005140070B5051C0005000F01380E1C83
:10076000052823D801F0E0FF031206090C0F002032
:100770000F4C0DE000200F4C0AE001200E4C07E06A
:1007800010200E4C04E000200D4C01E00D4C002028
:10079000ED03ED0E002801D0FFF716FF23680122BC
:1007A000AA409343AE401D1C3543256070BDC04632
:1007B00008800C4040800C4058800C4060800C4009
:1007C00078800C4044800C4000B50F23184001385D
:1007D000002303283ED801F0A7FF021627381E4B3E
:1007E000DA6AF0239B0113408022520193422ED0FB
:1007F0008022920193422CD018495B185A425341EF
:100800000522D31A26E0144A0321936A0B40022BD7
:1008100020D08B4213D0012B01D10B1C1AE0926A1D
:100820000923D10316D410E00B4A0C23916A0B4024
:10083000082B0ED00C2B02D0042B02D107E006238C
:1008400008E0926A0923D10204D4012302E00323C1
:1008500000E00223181C00BD00800C4000F8FFFFE0
:1008600008B5F8239B03184080231B0398422ED021
:1008700011D880239B02984221D002D8002840D072
:1008800045E08023DB0298421ED0C023DB02984261
:100890003DD1002024E0A0235B03984223D005D85B
:1008A00090235B03984232D1012019E0C0235B03FF
:1008B00098421FD0D0235B03984228D124E001F056
:1008C000C7FE144B9A6807E001F010FF20E00020FB
:1008D000FFF786FE0F4B9A6E0F231340D84017E0A8
:1008E000FFF77EFE14E00120FFF77AFE094B1A6F36
:1008F0000323F2E70848FFF767FF072804D008281A
:1009000005D101F0A5FE03E0FFF72EFE00E0002078
:1009100008BDC04600800C400400180070B5051EDC
:10092000042D28D8144B01F0FFFE0305080B0E0020
:10093000DC6A09E0DC6A240403E0DC6A240200E0EB
:10094000DC6A240E01E01C6BE4B20120FFF73CFFDF
:10095000061E052E01D1FFF7DBFD084B2D02DA68DC
:10096000D20AD20215432C43DC60052E03D101F0DC
:10097000BDFEFFF7DDFD70BDB081E00F00800C40D3
:1009800010B5042821D801F0CFFE0C091103060090
:10099000012002230CE01020202309E040208023C6
:1009A00006E08020802340009B0001E00420082313
:1009B000064C002906D02062002A04D0E26A1A42BE
:1009C000FCD000E0236200F0DDF810BD00800C4098
:1009D00010B50F240440012C04D0002C5DD0032C52
:1009E0005BD824E0881E072857D801F09DFE0F062B
:1009F000090C56565604032000E00120032407E0AA
:100A00000220041C04E00320012401E0002004244F
:100A100001210A1CFFF7B4FFFFF77AFD1F4B5C6250
:100A200000F0B0F801F062FEFFF782FD35E0481EED
:100A3000082832D801F078FE05070E313115313122
:100A40001D00002313E0012100200A1CFFF798FF7E
:100A500002230CE00120011C021CFFF791FF01237F
:100A600005E00F4B042219680A431A600323002291
:100A700001E0002301220949022C06D18C6A0948B1
:100A8000120420400343134306E012059B00134366
:100A9000886A054A104003438B6210BD00800C40F9
:100AA00040800C40FCFFFEFFF3FFEFFF10B5064B4C
:100AB00040001A68013001248440A2438140101C88
:100AC0000843186010BDC04678800C4030B51B4804
:100AD0000122C46FAA211440194A1A4BC2671A4A4C
:100AE00049001288802511401962F02189011140C6
:100AF0006D01A94208D08025AD01A94209D0802509
:100B00002D01A94210D109E0D96A0D06FCD50325B3
:100B100008E0D96A8D05FCD5042503E0D96A0D07E4
:100B2000FCD5022507494D62D10701D402221A6281
:100B3000002C01D00023C36730BDC04608800C40A4
:100B40000E58000000800C40F600002010B50A4B43
:100B50000A4ADB6A04241380094A1169214311619E
:100B600030BF002802D0FFF7B1FF03E05A0501D4DF
:100B700001F0BCFD10BDC04600800C40F600002016
:100B800000ED00E0024BDA6A024B1A807047C04663
:100B900000800C40F6000020F7B508AC24780194E2
:100BA0001B4C07290AD88D0067680F26AE40A84065
:100BB000B743051C381C284360600BE00D1C083D42
:100BC000AD00A7680F26AE40A840B743051C381CEF
:100BD0002843A0600F4F012538688D408446664643
:100BE000E84306408A4032433A600B4A17680740A0
:100BF000BC461F1C8F4063463B431360074B256276
:100C00001A68019C10408C4020431860F7BDC04614
:100C1000FC600040086100400C6100401061004031
:100C2000F0B5002A0CD0012524248D404443002B2C
:100C300003D01B4EA419256102E01A4EA419656069
:100C40002424444307290CD8154D0F2664196768DE
:100C50008D00AE40B743161CAE403D1C3543656069
:100C60000DE00F4EA419104EA7688D19AD000F2688
:100C7000AE40B743161CAE403D1C3543A560002A6C
:100C80000CD1012424228C404243002B03D0044B7E
:100C9000D218146102E0034D52195460F0BDC046F1
:100CA0000060004010600040F8FFFF3F70B5041C7A
:100CB000151C1E1C002A1BD002680E4B134003603B
:100CC0000368320213430360002903D10A48FFF787
:100CD000C7FD011C094BA800081A995D694301F082
:100CE0002DFD23689A0702D5002800D1012020613C
:100CF00070BDC046FFFCFFFF10810200573A0000A4
:100D000070B5002343630C4B022203630368012682
:100D100093434A780D1C7240B240134303600B7B2F
:100D2000AA684968041CFFF7C1FF23682A78B34307
:100D30001343236070BDC046CFFF0100F0B5894A60
:100D4000904200D00AE1884B9E681F785C88197930
:100D5000C020956AC00005420AD019715C80FD214F
:100D6000A80500D5EAE0690500D4E8E0FE21E5E049
:100D7000082F00D9DFE0381C01F0D6FC051B424FDC
:100D8000677697ABD3005C80197170883188C40690
:100D900004D50620090A0140F02004E0FE24214089
:100DA000850701D501200143012018705162506070
:100DB000C7E08020054200D07AE040273D4201D1C3
:100DC00001207FE01763778802256648AC46FD0660
:100DD00006D5197161465C80197031784162B0E0C6
:100DE00065462F4273D05C8019710724C9001C70BE
:100DF00076183189012900D0A3E008214160A0E0E4
:100E00008020054254D1402702203D425AD017632A
:100E10007588032705429BD159E05C80197174885D
:100E20003188E00605D50620090A0140F02001437B
:100E300001E0FE2001400420044201D001242143AE
:100E400018700120506051627BE0802005422FD154
:100E5000402704203D4235D017637588054236D0BF
:100E600019715C8007216BE0C80030180589A54224
:100E700013D8748801310420C9B2204002D0002464
:100E8000032765E701252C4002D05880197138E00E
:100E9000012900D85CE75C80F8E719714168095DB9
:100EA000013451625C8006214AE08020054205D071
:100EB0001971FF215C801063597022E040200542C7
:100EC00004D1062018705C8019713AE01063052780
:100ED0003EE7072018705C801971AC0631D5C90057
:100EE000761830895C88D569844203D271680D55C3
:100EF00001345C805988814208D3012801D108213E
:100F0000516008211970022151601AE004245460D4
:100F1000012816D00138814213D1124908204860B7
:100F20000FE0197180210820490018705C800D4283
:100F300007D0116303E019715C80FB21597009210E
:100F4000197019780120092909D100215163012262
:100F50009A56824200D15970587800E0FC2040B285
:100F6000F0BDC04600A00040F800002010B5174BAF
:100F7000984201D0FC2026E09A68D00701D52022B3
:100F80005A604A88900702D508890028F2D0500795
:100F900002D50A8A002AEDD00D4A002001241071E2
:100FA0001070547050809160C0225A609A6A910605
:100FB00001D5064AD269074A04481A63FC22D200C6
:100FC0005A63FFF7BBFE40B210BDC04600A0004010
:100FD000F8000020CFFF010000B5C36ADA0702D491
:100FE000036B0B42FCD100BDF7B506680325331C2B
:100FF0002B40041C0F1C01920093002B05D00121F3
:10100000FFF7EAFF331CAB432360201C0421FFF7EA
:10101000E3FF0225201C06216761FFF7DDFF656005
:10102000201C291CFFF7D8FF01236360019BBB42F2
:101030000AD0201C291CFFF7CFFF019B201C6361F5
:101040000621FFF7C9FF6560009B002B04D0201C20
:101050000321FFF7C1FF2660F7BD000000B500299E
:1010600006D001290BD1C16B9302054A0A4004E066
:10107000C16B1301102291430A1C1A43C26300BDC5
:10108000FFFBFFFFF7B53A4AC36B8718BF0A01970A
:101090000D1CCA7CC3218B4313432A7D041C92017F
:1010A0001343C3632B7B5A1E93416A7BDB00002AE8
:1010B00001D004221343AA7B002A01D0102213433B
:1010C000EA7B002A02D08022520013432A7C002AA5
:1010D00002D08022920013436A7CA97C92021343BF
:1010E0000322002903D00022022900D80A1C1F1C59
:1010F00023682026B34333439203236001980021E1
:101100001743FFF7D3FC2B789A1E012A13D8201C13
:1011100001211F43FFF760FF201C01212660FFF71C
:101120005BFF01980121FFF7C1FCAB6863610223FB
:10113000636027601AE023689A0705D03E43266063
:10114000201C0121FFF748FF2368202293432360DE
:101150006968201CAA68FFF747FF2978012905D193
:10116000201CFFF739FF2B783B432360F7BDC046B7
:1011700000A0F7BFFC239B03194080235B051943A4
:1011800007231A400430024B11438000C1507047BE
:1011900000C00C4000B5002803D0012803D1024B49
:1011A00000E0024B196000BD0C0008400800084038
:1011B000034B01211A688A43104318607047C046E8
:1011C0000000084000B5044B002802D001221A623A
:1011D00000E0186200BDC0460000084000B542783B
:1011E0000378002A01D0022213438278002A01D01A
:1011F00004221343014A136000BDC04600000840AA
:1012000038B5051C141C081E02D10748FFF728FB3F
:10121000631E40001818211C01F090FA034B800156
:1012200040381840686138BD1081020000FF1F007F
:1012300000B50B4B0B4AC3600023036042600A4AAF
:1012400083604361C3648264084A4365904200D16D
:1012500003658365904201D10023C36500BDC0468C
:10126000AA0E000005100000F91F000000C4004095
:1012700038B50D1C041CFFF7DBFF2B8A012213433A
:10128000AA7B2168501E824192020B4313432360C4
:10129000AB7C21685A1E93412A7D1B01501E82415E
:1012A00052070B43134323602A7B80235B011343C4
:1012B0006360201C6968AA68FFF7A2FF6B7B002BA4
:1012C00001D01023E3602B78E36038BD00B50369DB
:1012D0005A06FCD5416300BD00B503695A06FCD52A
:1012E000C16300BD00B5054B1A780123002A02D066
:1012F000034B03600023181C00BDC04644010020BE
:1013000038010020F0B5051C0C4804780120002CA1
:1013100013D00B4CAF1826880420B7420DDC66882A
:10132000CF18B74209DC0520002A06D0002B04D0D4
:10133000A580E180228163810020F0BD440100206E
:1013400038010020F0B587B0021C52480478012013
:10135000002C00D19BE0504C2468002C00D196E07A
:101360004E48457C002D00D090E08568ED0804953E
:10137000007C012801D1039302E05D425D410395A9
:1013800000250195039D002D01D0FF250195444BBB
:10139000049EDB880025C91889B24E430591A61921
:1013A00002950D9D002D6FD03D4B0D9D1C89A41AFB
:1013B000AC4200D92C1C0D9D2D1B0D959D885519F7
:1013C000ADB2072C21D80398641900280ED0A5428D
:1013D00045D207222A40EB080121F31891400A1C4C
:1013E000197801350A431A70ADB2F0E7A54236D23A
:1013F00007212940EB080122F3188A40111C1A78B2
:1014000001358A431A70ADB2F0E707232B40ED088F
:101410007519002B0CD001229A402878013A0199C5
:10142000D2B2914302400A43083B2A70E4180135C6
:10143000E70807D0281C01993A1C01F0ECFBFB00DF
:10144000E41AED19002C0AD00123A3401C1C013C16
:101450002B780199E4B2A3430C401C432C70029DED
:101460000598104B29184A111F20920001400120B5
:10147000D5588840011C2943029DD1500135029561
:10148000049D002276198CE7281C00E00A2007B092
:10149000F0BDC04644010020080100200C010020DE
:1014A00038010020000B002070B50A4C051C0A48CA
:1014B000231CC26841688669B04722680B20002A55
:1014C00006D02A600548FF21102201F0A4FB00206D
:1014D00070BDC046080100200C010020000B002058
:1014E000F7B5194E00243378A3422BD100F040FA0F
:1014F000041E27D1154D291C00F050FA041E21D1DD
:10150000134F381CFFF7D0FF041E1BD13B68002B84
:1015100017D0EA68696890B28FB2021C7A430D4B0B
:10152000211C1F8058809C80DC801F8158810123F2
:101530003370201C01920094221C231CFFF702FF31
:1015400000E00B24201CFEBD440100200C01002003
:101550000801002038010020F0B585B0234B00249D
:101560009B680126DB080293214B271C1D681F483E
:10157000E319C2680393934220D201222A4001D08A
:10158000013412E0002C0FD0029B1A497B430968FA
:10159000C918436800970194046AA047002823D122
:1015A000039F041C013700E00137E3196D08DA06D8
:1015B000DDD10F4BB200D5580136D8E7002C06D14B
:1015C0000B480021102201F026FB00200CE0029BBA
:1015D000084A7B4311680022C918436800970194A8
:1015E000046AA0470028EBD005B0F0BD0C01002034
:1015F000000B002008010020F0B587B0051C0C1C72
:10160000002835D0002933D00F688A68042097421B
:101610002FDAE3684968019399422ADA2E68B08884
:1016200084460320674524DBF388994221DB338914
:1016300093421EDD7689019B9E421ADD89B2B8B2C3
:10164000CB1882180132013392B29BB2FFF75AFED7
:10165000A26826686168E46804922A1C02960391D5
:10166000059402AB0C3270CB70C21B68136000E0B3
:10167000052007B0F0BD000010B586B0041C0520A1
:10168000002C16D0002363600B4B01A8A360FFF76A
:1016900029FE00280DD1019B0290039023601A8837
:1016A000201C013A04925B8802A9013B0593FFF7D5
:1016B000A3FF06B010BDC046FFFFFF0008B5031C26
:1016C0000520002B06D01B6800201A88011C5B88AF
:1016D000FFF718FE08BD37B50521041E13D0456875
:1016E000FFF7ECFF011E0ED120682A0C2B0AEDB289
:1016F000009544890089D2B26043DBB20190081C96
:10170000FFF720FE011C081C3EBDF7B50524051C93
:101710000F1C161C002812D00C3000F02DF80124EC
:1017200000280CD0AD68B8B22A0C2B0AEDB2019497
:10173000B1B2D2B2DBB20095FFF704FE041C201C4C
:10174000FEBDF7B505240F1C161C1D1C002811D06A
:101750000C3000F011F8012400280BD02A0C2B0AC1
:10176000EDB20194B8B2B1B2D2B2DBB20095FFF7DC
:10177000E9FD041C201CFEBD10B5031E10D01C6822
:101780000020A1420CDB9C68A14209DC59688A4216
:1017900006DBDB68D00FD91793424841C0B2FFE7A0
:1017A00010BDF0B587B004930CAB1B78041C0392FA
:1017B000059300D186E00D1C203DEBB202205E2B8C
:1017C00000D980E0231C28331B78ADB2834209D1B5
:1017D0003A2906D00B25202904D00D1C303DADB28E
:1017E00000E00A25238C0220AB426CDDE069002773
:1017F00002900197A31DDB7F019883425FD9E31C10
:10180000DB7F012B05D0022B08D102986B001B5AFD
:1018100007E0029A525D0092002619E0029AAB009E
:10182000D35A0093F8E7009BDB0716D50398049B77
:10183000811901981A18201CFFF767FF012842D868
:1018400043424341FF180098013640080090B6B269
:10185000631DDB7FB342E6D811E0059A002AF2D07F
:10186000039B04989919019BC218201C6368FFF719
:1018700068FFE3E7059A002A09D10136B6B2631D75
:10188000DA7F0333DB7FD3189E42F3DB0EE0039B4A
:1018900004989919019BC218201C6368FFF751FF37
:1018A000012810D843424341FF18E6E7231DDB7FA0
:1018B000ED18019BADB201339BB201939AE77842D8
:1018C000784100E0052007B0F0BDF0B587B0039384
:1018D0000CAB041C01CB1B780593002C35D00029E0
:1018E00033D0231C28331B780220002B2ED00C9BD6
:1018F0008A18039E0D1C04920293002704988542C7
:1019000020D029780A2909D1A31DDA7F0298E31D86
:10191000DB7F8218D3180293039E11E0059B201CE5
:101920000093321C029BFFF73CFF01280ED8434274
:101930004341FF18631DDA7F0333DB7FD318F618AA
:101940000135DBE77842784100E0052007B0F0BDC3
:1019500008B500280AD01C301022002902D101F05D
:101960005AF903E001F04EF9002000E0052008BD1F
:1019700010B5084B1A78002A01D0002008E0012297
:10198000054C1A7008CC002BF7D098470028F9D0E6
:1019900010BDC046780100200400002008B50A4AA6
:1019A0000B1C1278002A0AD000280ADC2C22504393
:1019B00006490918181C01F025F9002002E0044826
:1019C00000E0044808BDC046780100204C0100201A
:1019D000050011800200118008B50B4B011C1B781B
:1019E000002B0DD0094A1368002B0BDC581C10602B
:1019F0002C2253430648C01801F004F9002002E0ED
:101A0000044800E0044808BD780100204801002097
:101A10004C0100200500118001001180F0B58029E3
:101A200011D10A4C0A4D2168942712013F018E18EA
:101A3000ED190020AE4202D91860064804E0196092
:101A40008918216000E00448F0BDC0460C00002069
:101A50007A010020010011800200118000487047C7
:101A600004001180F7B504200F1C0B2100F04AF987
:101A7000062000F02AF9089E6D460136B6B20635FA
:101A8000012233021343281C02212B8000F0F8F8B6
:101A90000024099B200138189C4215D0102100F029
:101AA000EFF8099B013B9C4202D101235B4204E019
:101AB000731C1B191B02FF221343281C02212B80BD
:101AC000013400F0DDF8E4E7022000F0FEF80B211D
:101AD000042000F025F90020FEBD08B500F0F0F864
:101AE00000F0ACF8002008BD70B500240E1C1D1CD1
:101AF00020013018AC4205D00021102201F08BF8F3
:101B00000134F5E7002070BD08B50821002000F081
:101B1000F9F80A21002000F0F5F808BD10B50C1EF8
:101B200002D0FFF7F1FF07E0081C0A2100F0F8F8E7
:101B3000201C082100F0F4F8002010BD13B50B2183
:101B4000042000F0DFF8062000F0BFF86846042407
:101B500002210630048000F093F8022000F0B5F86E
:101B6000201C0B2100F0DCF8002016BD10B58CB055
:101B700000F0A6F800F062F800F0ACF80022131CA8
:101B80000F21022000F0B0F80022131C07210320CF
:101B900000F0AAF80022131C0B21042000F0A4F886
:101BA00000200821021C031C00F09EF800200A21DE
:101BB000021C031C00F098F80020011C021C031CEE
:101BC00000F092F80022131C0A21042000F08CF887
:101BD00004200A21402200F0B1F8041E1DD1104A51
:101BE00001A801920122027480224260C2608260D8
:101BF0000C4A447442610C4A82610C4AC2610C4A2C
:101C000002620C4A42620C4A8262FFF7E5FE041E41
:101C100003D1FFF779FFFFF791FF201C0CB010BD37
:101C20004C3C00001D1B00001D1A00005D1A000046
:101C3000651A0000E91A0000DB1A000030B587B011
:101C40000A4A6B4623CA23C323CA23C3084D094843
:101C50000121FEF77FFD084B281C69460293FFF720
:101C600007FB064B00206B6507B030BD643C0000ED
:101C700000C4004000320200E06735000A030000A3
:101C800038B5041C0D1C002D11D0012D01D0E20728
:101C900006D521780948FFF719FB013D0134F2E729
:101CA00021880648FFF718FB023D0234EBE7034B9F
:101CB0001B699A06FBD5002038BDC04600C4004011
:101CC00008B500F0A5FB002008BD08B500F080FCB9
:101CD000002008BD08B503480121FEF73BFD0020A8
:101CE00008BDC0460072020010B5141E05D1C0B276
:101CF0000422FEF795FF201C00E0014810BDC046FD
:101D00000100138001238B40191CC0B224235843C7
:101D1000024BC018016100207047C04600600040BF
:101D200001238B40191CC0B224235843024BC01816
:101D3000416000207047C04610600040F7B5051CA8
:101D40000C1C161C042847D10A2945D1234801211F
:101D5000FEF700FDA021022089030122FFF70AFA05
:101D60001F4B812292009A60211C0023281C2A1CF0
:101D7000FEF756FF1B4901AC201C1831032200F06E
:101D800041FF194B1B6C2B4203D118480121FEF770
:101D9000E1FC17480921FEF71BFE16480221FEF759
:101DA00071FC01211348FEF7D5FC00250127201CFA
:101DB00025706570A770FFF711FA0E48FEF750FD09
:101DC000311C00F0BBFC411E281CFFF7E3F9381C56
:101DD000FFF7EEF9281C00E00748FEBD00420200B4
:101DE00000C00C40643C000000800C400023040054
:101DF00002000600300408000100138010B5012124
:101E0000041C1248FEF7A6FC11480121FEF7A2FCB3
:101E100004200D210A220123FEF702FF01230420E2
:101E20000C210A22FEF7FCFE09230A4980229201B6
:101E30000A600949013B0A60002BF6D10748084AAD
:101E4000211C8263FEF75CFF10BDC04610810200BA
:101E500000B20200A0600040A460004000A000406A
:101E60000306000010B5011C0748FFF77FF8074C78
:101E700040B2012806D1013C002C03D00248FEF7F5
:101E80005DFFF5E710BDC04600A00040E1930400EF
:101E90000020704700B5FEE700207047F8B50E1C23
:101EA0008F180C1CA51BBC4203D000F045F8431C46
:101EB00004D1002D05D101256D4202E020700134CE
:101EC000F0E7281CF8BD70B50E1C151C0C1CA31BDC
:101ED000AB4204DA2078013400F032F8F7E7281C2E
:101EE00070BD000038B5104B1A68002A01D10F4AA6
:101EF0001A601A681018EFF30881884211D90C4B48
:101F00001B68986800F0EEFC0A4C051C201C01F0D0
:101F100013F9211C021C281CFFF7D5FF012000F03B
:101F2000C9FC1860101C38BDBC0A0020180B00202A
:101F300084000020803C00000120404270470000E7
:101F400010B5064B041C1868002804D0211C00F0B2
:101F500017FA201C01E00120404210BDC00A0020F9
:101F600030B587B001A81D1C042343806B460124B3
:101F70001A7000AB43600481C56004820180FFF7E2
:101F800071FF002802D0FF232B70041C201C07B017
:101F900030BD00B589B003A801800121418002A9AC
:101FA0004B700223038101ABC360002341600382B5
:101FB0000A70FFF757FF09B000BD000008B5064BD7
:101FC000197118600021181C00F06BF8C0B2473876
:101FD0004342584108BDC046C40A002010B5054B15
:101FE000141C197118600321181C00F05AF82060A5
:101FF000002010BDC40A0020F7B5224C1D1C002390
:102000002B60161C01AA21712060FFF7E7FF019BDE
:10201000002B15D02C21201C00F043F82D21071C8B
:10202000201C00F03EF800020743381C323080B21A
:10203000642100F083FB019B3080002B1BD109E061
:10204000201C00F06DF8201C212100F02AF8C307A5
:10205000F9D5DFE72621201C00F023F82721061CF4
:10206000201C00F01EF800020643074BB6B29E4249
:1020700001D901232B60201C2121FF2200F006F84A
:102080000020FEBDC40A00202701000010B5131C6B
:1020900002680C1C0179101C221CFFF77AFF00B2A9
:1020A00010BD13B56C46031C07340A1C006819796F
:1020B000231CFFF755FF207816BD70B50E1C20219C
:1020C000051CFFF7EEFF041E1ADB281C3021FFF76A
:1020D000E8FF012809D1002E0AD0281C2021FFF793
:1020E000E0FF23B2984203D084B20028EDDA06E084
:1020F000281C1821321CFFF7C9FF002802D0041C3D
:1021000020B270BD002E03D10024F9E70028F7DBD0
:10211000281C2021FFF7C5FF23B29842F6D0F3E731
:1021200008B50721FFF7C9FF08BD10B5436C041CB3
:10213000002B0BD0036B426B0B215A43006C00F059
:102140006AFD0023E36423655434237010BD00004E
:10215000F0B587B08F00C56B041C0291059700266F
:10216000236B002204932B1C277D04980397824243
:1021700013D0606C059FC159885C8019400084466B
:1021800016486146085A0399002902D0012901D155
:10219000C043188001320233E6E7012F08D1A1685D
:1021A0001201D0108A1A2818D208FF2100F033FD3E
:1021B000E2680C3613095B00ED18F02ED0D1276BC6
:1021C00014223B01029FE16B574301920097201DAF
:1021D0000022646AA04707B0F0BDC0469A3C0000E8
:1021E00073B5031C54331B78041C012B38D0002B0F
:1021F00003D00020022B3CD13AE0457D002D37D1A1
:10220000636B9D4205D2291C201CFFF7A1FF0135FD
:10221000F6E7142253432269934221D2217D0029FB
:1022200006D0012924D1A668E06BF208FF2102E064
:10223000A368E06BDA0800F0EEFC626B14255543EE
:10224000226995420CD201230193201D0095E16B78
:102250000022A368666AB04700280AD10135EFE77B
:10226000637D002B04D1216D201CFFF771FF00E07E
:10227000004876BD0400128038B50025041C616B4F
:10228000636C0139226B8D4207D2A9000135585881
:10229000A900595800F0B6FCF1E789005858002110
:1022A00000F0B9FC626B0023013AE3642265543408
:1022B000237038BD38B5041C0D1E0A2D06D00D291B
:1022C00002D0082927D117E0002354E0036D002233
:1022D000C264426B0133036593424DD3031C383310
:1022E0001B78002B05D0FFF7C7FF636B013B23650D
:1022F00042E0FFF71AFF3FE0037D012B0BD9031CDF
:1023000049331A784A34FF2A01D1002200E0FF2223
:102310001A70227030E0194B68221B685B195B78D9
:10232000934303D02B1C303B0B2B00D93B25E36C94
:10233000226B934204D30023E364236D01332365AE
:10234000236D626B93420DD3231C38331B78201C02
:10235000002B05D0FFF790FF636B013B236501E085
:10236000FFF7E3FE226D303D9300626C9B58E26CF8
:102370009D54E36C0133E36438BDC0461C0000206B
:1023800070B5031C55331B78041C0E1C002B3BD06E
:10239000437D051C5435002B01D1012300E00223AD
:1023A0002B70231C38331A78E36C002A07D0002BDB
:1023B0000BD1626B216D013A914206D104E0002BF2
:1023C00003D1236D002B00D12B700C2E05D1201CC6
:1023D000FFF7ABFE00232B7012E0231C39331B7870
:1023E000002B05D00A2E03D1201C0D21FFF762FF20
:1023F000201C311CFFF75EFF2B780020032B04D03C
:10240000201CFFF7EDFE00E0004870BD06001280C2
:10241000F0B58BB0654C09A86549032200F0F2FBCA
:10242000236C00200190590705D462480121FEF772
:1024300091F9012201926048FEF7C6F9E26A402351
:10244000171C032106905C481F40FEF7C1FA5B4849
:10245000FEF7EAF88021079049005848FEF712F984
:10246000A36D002001240290234204D15348211C73
:10247000FEF770F9029472B6514B1A68511C01D0E4
:1024800001321A604F4C01262568354012D022686F
:10249000A368E0680493002303920590E569236034
:1024A000E3610723A3618021C023474A4901B34068
:1024B000D15003E00595049503952E1C002309A82F
:1024C0008370FEF78BFE8022404B52011A603F4B17
:1024D0001A6852001A600BD0616862689142FCD0A1
:1024E000384A52681B68013BFDD863689342EED0BE
:1024F000364B1A6852081A601B680922013A002AF2
:1025000017D05B0815D03149086818430860606827
:10251000844660688445FCD02A48406809680139CF
:10252000FDD861688142E9D028490868984308606D
:10253000E4E7234A1368002B04D0013B1360002B0F
:1025400000D162B6002E11D007991C48FEF79AF808
:102550000120FEF737FE0499059A039BA160002035
:10256000E2602360E561FEF72DFE02E0301CFEF71D
:102570001FFE0298002803D010480021FEF7EAF859
:102580000699032902D00C48FEF722FA002F04D145
:102590000120391C3A1CFEF7F3F9019A002A03D0F6
:1025A00004480021FEF7D6F80BB0F0BD00800C40C7
:1025B0007A3E0000002304000200060030040800F8
:1025C000040100200000084000E100E010000020AD
:1025D000064B88221202003250431A68C00AD20AFF
:1025E0005043800901D00138FDD870471000002009
:1025F000064880470649074A074B9B1A03DD043B00
:10260000C858D050FBDC0548004700000D270000EB
:102610009040000000000020D00000206101000078
:10262000FEE7FEE7FEE7FEE7FEE7FEE7FEE7FEE782
:10263000FEE7FEE7FEE7FEE7FEE7FEE7FEE7FEE772
:10264000FEE7FEE7FEE7FEE7FEE7FEE7FEE7C04641
:1026500000B51E4AF023D16A9B010B40802149013D
:102660008B422DD0802189018B4205D08021090128
:102670008B4204D1164B00E0164B186824E0D26858
:10268000E023DB00134080229200934212D007D84F
:10269000002B11D08022520093420FD10E4813E03C
:1026A000C022920093420ED08022D200934205D1E4
:1026B0000A4809E00A4807E00A4805E0002003E06C
:1026C0008020000200E0084800BDC04600800C40A9
:1026D000180000201400002040B56400406F400145
:1026E000C0D8A700804F1200809FD50008B5FFF723
:1026F000AFFF044B5A680F231340D840024B1860B9
:1027000008BDC04600800C40100B002070478020A0
:1027100000027047FA20800070470000014B1868E3
:102720007047C0461400002002B4714649084900B1
:10273000095C49008E4402BC7047C046002934D071
:102740000123002210B488422CD301242407A14283
:1027500004D2814202D209011B01F8E7E400A14240
:1027600004D2814202D249005B00F8E7884201D3DB
:10277000401A1A434C08A04202D3001B5C082243B3
:102780008C08A04202D3001B9C082243CC08A04224
:1027900002D3001BDC082243002803D01B0901D010
:1027A0000909E3E7101C10BC7047002801D0002085
:1027B000C04307B4024802A14018029003BDC046BE
:1027C000D90000000029F0D003B5FFF7B9FF0EBC17
:1027D0004243891A1847C046002941D010B4041C4E
:1027E0004C40A44601230022002900D5494200287C
:1027F00000D5404288422CD301242407A14204D2B0
:10280000814202D209011B01F8E7E400A14204D28F
:10281000814202D249005B00F8E7884201D3401AA6
:102820001A434C08A04202D3001B5C0822438C08C8
:10283000A04202D3001B9C082243CC08A04202D332
:10284000001BDC082243002803D01B0901D0090922
:10285000E3E7101C6446002C00D5404210BC7047D2
:10286000002806D003DB0020C043400801E08020A0
:10287000000607B4024802A14018029003BDC046FA
:10288000190000000029EBD003B5FFF7A7FF0EBC2D
:102890004243891A1847C0467047C04610B5044CD9
:1028A000002C02D000E000BF00E0201C10BDC0469C
:1028B00000000000094B10B5041C002B03D00021C0
:1028C00000E000BF01E000F0F3F805480068816A0D
:1028D000002900D08847201CFFF7DCFA0000000028
:1028E000E43F000038B50F4D041C2868002804D0D0
:1028F0008369002B01D100F071F80B48844202D1AA
:102900002B685C680AE009498C4202D12D68AC68EA
:1029100004E0074A944201D12C68E4680E23E05E8B
:1029200038BDC04684000020803F0000A03F00006A
:10293000C03F0000F8B5041C071C4C34002C13D019
:10294000A5686668013E0DD40C22AB5E002B07D053
:102950000E22A85E431C03D0381C291C00F0FAFE8E
:102960006835EFE72468E9E7F8BD000010B50023FB
:10297000041C03604360836081814366C2810361FC
:1029800043618361191C08225C3000F044F905485A
:102990000549064A064B24626062A162E262236333
:1029A00010BDC046A1300000C93000000131000058
:1029B0002D31000070B568254D430E1C291C0C31CB
:1029C00000F0D6F8041E07D00C30002121606660AC
:1029D000A0602A1C00F01FF9201C70BD70B585692D
:1029E000041C002D20D1114B012683628661C56431
:1029F0000565456500F01CF86060201C00F018F8C3
:102A0000A060201C00F014F80421E0602A1C60681B
:102A1000FFF7ACFFA0680921321CFFF7A7FFE068B1
:102A200012210222FFF7A2FF70BDC0463529000027
:102A3000F8B51E4B071C1E68B269002A02D1301C73
:102A4000FFF7CCFF4C36B4687368013B05D40C2209
:102A5000A55E002D11D06834F7E73068002801D05A
:102A60003668F0E7381C0421FFF7A4FF3060002827
:102A7000F6D10C213960041C15E001225042E0819E
:102A80000126201CA68165662560A560656025611C
:102A90006561A5615C30291C082200F0BCF8656303
:102AA000A563A564E564201CF8BDC046E43F0000B2
:102AB00038B5084B084C1D1CE01A8410002C06D0B9
:102AC000A1006A18043A13689847013CF6E700F041
:102AD000A1FF38BDCC000020D000002070B50E4B07
:102AE0000E4D0024E81A85101E1CAC4204D0A10033
:102AF000725890470134F8E700F086FF0849094A08
:102B00000E1C541AA5100024AC4204D0A300F058A7
:102B100080470134F8E770BDC8000020C8000020DD
:102B2000C8000020CC000020084B70B51C68051CB4
:102B3000E26B1E1C002A03D1242000F00FF8E06392
:102B40003068C16B281C00F003F870BD84000020C1
:102B500008B5002200F018F908BD000008B5034BC5
:102B6000011C186800F004F808BDC046840000206D
:102B700070B50323CD1C9D430835061C0C2D01D2D6
:102B80000C2501E0002D2DDB8D422BD31C4A136850
:102B9000111C1C1C002C12D02068421B0CD40B2AC8
:102BA00002D92260A41815E0A34202D166680E6023
:102BB0001CE065685D6019E0231C6468EAE7301C6E
:102BC000291C00F039FA421C0CD0C41C03218C4390
:102BD000844201D1256009E0211A301C00F02CFA52
:102BE0000130F7D10C243460002008E0201C0B30A9
:102BF0000722211D9043431A01D05D42E55070BD6C
:102C0000CC0A002010B50023934203D0CC5CC454FE
:102C10000133F9E710BD00B58218031C934202D0BE
:102C200019700133FAE700BDF0B587B0051C00F05C
:102C300083FE4E4B061C00209D4200DC94E04C4875
:102C400075602918CA005418E7007B189800494994
:102C50001C18494B6A186421E81849429710FFF77D
:102C6000BBFDE41927184548C82251002818FFF772
:102C7000B3FD64213C18281C0394FFF703FEC8230E
:102C80000491281C5900FFF7FDFD341C4F424F41B1
:102C90000221019714340291201C0C3802784A2A30
:102CA00010D123680398C218A90702D104990029FA
:102CB00003D1019F00218F4240D001213B2B3DDCFD
:102CC00000213BE0442A03D1039F2268BA1836E072
:102CD000019BA80703D1049F002F00D001233021BE
:102CE0004B432748271CC2180592039B083F3F68A7
:102CF000059A00930123BB4205DA009802CA01330A
:102D000041180091F7E7002F00DC01270098072108
:102D10000430FFF7B7FD2068431A00D50733211FA1
:102D20000868013F0138C200111AC918059BBF008D
:102D3000F858814201DB0739FBE7009A5218114B22
:102D400060685A43E7681118CA190299A2600139EC
:102D500002911C3400299FD1F469B56B0123AC4268
:102D600000DB0B1C3360012007B0F0BDB107000091
:102D70004EF8FFFF4FF8FFFF93F8FFFFBFF9FFFF8B
:102D8000E83F000080510100F0B585B003920C1CB3
:102D9000019000F0D1FD071C0198A1490668301C84
:102DA000FFF71AFD9E49051C301CFFF76BFD0E1C3A
:102DB000002E03DA9A49013D7618F9E7E121301C2B
:102DC0000901FFF709FDE1221101A060301CFFF7A6
:102DD00059FD0E1C081C3C21FFF7FEFC3C216060E5
:102DE000301CFFF74FFD281D21600721FFF74AFD2A
:102DF000002900DA0731A1618A4E002D23DBB207DA
:102E000006D1301C6421FFF73DFD0123002906D1C6
:102E1000C8235900301CFFF735FD4B424B41824817
:102E200099004258954219DB0136AD1AE7E7301C8C
:102E30006421FFF727FD0123002907D07A48990074
:102E40004258AD180AD5013EB107F0D0C823590049
:102E5000301CFFF717FD4B424B41EFE7302273491F
:102E60005343701872496061CB180020E5610293EA
:102E700020612269029B9100C858854203DB013220
:102E80002D1A2261F5E70135E560039D002D00D084
:102E9000C0E000F0ADFA674A1168002923D07B68D2
:102EA0009E4206D1019A39681668FB69002909D14A
:102EB00010E0301CFFF7B8FE0028F3D10120454296
:102EC000256212E000259E420BDBB96B8E4208DAC8
:102ED000012506E09E42FBDAB86B0125864200DB45
:102EE0000D1C256201E0039E2662226A012A01D19F
:102EF000FE6B00E03E6AE127301C3901FFF7C2FC9F
:102F00000F1C081C3C21FFF7BDFC2368381C5D1A10
:102F100025603C21FFF760FC6168E1220F1A6760C1
:102F2000301C1101FFF758FCA668301AA0603B2D39
:102F300003DD013767603C3D04E0002D03DA013F0B
:102F400067603C35256063683B2B03DD0130A06082
:102F50003C3B04E0002B03DA0138A0603C336360A3
:102F6000A568172D20DDE369A76901330137E36107
:102F7000062F00DD0027E268183DA56025690132B3
:102F8000029EA761E260A900885982423FDD131AC0
:102F90000135E36025610C2D39D1626900270132CA
:102FA00027616261E76132E0002D30DAE169A769EB
:102FB0000139E161013F00D50627E2681835013A81
:102FC000A761E260A560002A21D12669013E01D4F3
:102FD000266117E065690B20013D20616561A90745
:102FE00006D1281C6421FFF74DFC0127002906D1DA
:102FF000C823281C5900FFF745FC4F424F416E374C
:10300000FF37E7612169029E8A009059E06000F075
:10301000F0F901E000272762201C05B0F0BDC04692
:1030200080510100B20700004840000094F8FFFF03
:10303000E83F0000D00A002038B5074C0023051CEB
:10304000081C2360FEF74EFF431C03D121680029B2
:1030500000D0296038BDC046140B00200EB400B566
:103060009CB01DAB02A904CB8222029008619200A1
:1030700009488A810122886048615042074AC88114
:1030800010681D9A019300F0B7F8029900230B70A5
:103090001CB008BC03B01847FFFFFF7F840000206E
:1030A00038B50C1C0E25495F00F06AFC002803DBD4
:1030B000616D0D18656503E0A289024B1340A38181
:1030C00038BDC046FFEFFFFFF8B51E1C8B89051CFD
:1030D0000C1C171CDA0505D50E23C95E002202233D
:1030E00000F02EFCA2890548331C1040A0810E225E
:1030F000A15E281C3A1C00F007FBF8BDFFEFFFFFA4
:1031000038B50C1C0E25495F00F01AFCA389421C3F
:1031100003D1054D2B40A38104E0802251010B43D4
:10312000A381606538BDC046FFEFFFFF08B50E23E1
:10313000C95E00F0FDFA08BD0023C25C0133002A1D
:10314000FBD1581E70470000F7B501919168071C2C
:10315000141C002940D190239289D80002423BD010
:103160002568216963696E1A58000096C618009890
:10317000F50FAB1901305D10A84201DB009D02354F
:10318000381C53050FD5291CFFF7F2FC061E13D07F
:103190002169009AFFF736FDA78916498022394038
:1031A0001143A18111E02A1C00F0FEFB061E0CD188
:1031B000381C216900F078FB0C203860A589402676
:1031C0003543A5810124604213E0009B6561F0183E
:1031D000ED1A26612060A560A668002E08DD69460C
:1031E00027680A793A70A3680137013B2760A3601A
:1031F0000020FEBD7FFBFFFFF0B5A1B00490079358
:103200008B890E1C171C19060FD53269002A0CD1A8
:103210004021FFF7ADFC30603061002803D1049CF1
:103220000C262660D6E04020706108AD00212024E5
:10323000302369616C76AB763C1C2278002A04D17D
:10324000E01B069019D003970FE0252AF8D001342F
:10325000F3E70399321C09780498FFF775FF039A86
:1032600001320392013000D1AFE003990698CB1BE5
:103270008342EEDB0D9F3A180D922178002900D190
:10328000A3E001206A4600234742633201342B60E9
:10329000EB606F60AB601370AB65504F2178381CEA
:1032A000052200F061FB002807D0C71B2B68012016
:1032B000B840184328600134EFE72B68D90603D5DE
:1032C00068462021633001701A0703D56A462B2710
:1032D0006332177021782A2901D00B9B0EE0079AE0
:1032E0001068111D0791002801DB0B9004E00222F9
:1032F00047421343EF602B60013409E020783038F7
:10330000092804D80A277B4301341B18F6E70B93DE
:1033100023782E2B18D161782A2909D1079B0234F2
:103320001A68191D0791002A0DDA012042420AE0AD
:103330000134002220783038092804D80A277A433B
:1033400001341218F6E70992254F2178381C032220
:1033500000F00AFB002806D02B68C21B40219140D8
:1033600019432960013421781E4806222976671CFA
:1033700000F0FAFA002817D01B4800280BD1286863
:10338000079C0723C10501D5E41800E007349C43DE
:103390000834079414E007AA00920498291C321CF0
:1033A000124B00E000BF07E007AC00940498291C12
:1033B000321C0E4B00F08EF8059005994A1C04D083
:1033C0000D99059A8C180D9436E7B589690601D4D4
:1033D0000D9801E00127784221B0F0BD5040000077
:1033E000564000005A400000000000004931000033
:1033F00070477047F7B5151C01930A698B680090F8
:103400000C1C934200DA131C201C2B604330017803
:10341000002901D001332B602668B00602D52F6841
:1034200002372F602268062616401CD0261C433621
:10343000377822683E1C731E9E4192061CD5A31944
:10344000181C40303021271CC17045373A78413371
:10345000DA70023610E0617E0098019A089FB84742
:10346000013006D00136E3682868191A8E42F2DB73
:10347000DCE7012040422CE00027B7420ADAE119DC
:10348000433109780098019A089B98470130F0D0A1
:103490000137F2E72B68256806212940E6680025F8
:1034A000042903D1F01AC743FD170540A268266915
:1034B000B24201DD931BED180027AF4208DAA17E6E
:1034C0000098019A089EB0470130D2D00137F4E746
:1034D0000020FEBDF0B50D1C8BB043350793059061
:1034E000069204950A7E0C1C109B6E2A00D1A8E05F
:1034F00012D8632A24D009D8002A00D1B1E0582A72
:1035000000D0C1E045310A707D4D51E0642A1FD0E2
:10351000692A00D0B8E01BE0732A00D1A5E009D8E1
:103520006F2A2BD0702A00D0AEE00A6820261643FE
:103530000E6038E0752A21D0782A00D0A4E032E06D
:1035400018680E1C051D1D600368423633709EE02E
:1035500026681F68300606D4750604D5381D186025
:1035600000203D5E02E03D1D1D603D68644B002D66
:103570003BDA04992D226D420A7036E027681E68F6
:103580003D0605D4780603D5351D1D60358802E05B
:10359000311D196035685A4B207E039308276F2828
:1035A0001ED00A271CE0271C45377820554D38705F
:1035B0001A682668111D03951960300603D4750634
:1035C00001D5158800E01568F00702D520231E43B9
:1035D00026601027002D03D1266820208643266010
:1035E000261C43360022327001E003930A276168EB
:1035F000A160002903DB2068042398432060002D8C
:1036000002D1049E00290ED0049E281C391CFFF70D
:10361000D9F8039A013E515C281C3170391CFFF720
:103620008DF8051EF1D1049B9A1B2261082F33D11E
:103630002768F80730D5606890422DDC013262605F
:103640002AE008681E684969050606D4450604D5BF
:10365000351D1D603368198003E0321D1A6037681C
:10366000396000202061049E16E01E68311D19603B
:103670003668301CFFF760FD65682061A84200D9FC
:1036800025612369636004E0261C42363270012103
:103690002161049F00223A7007990598009109AAB8
:1036A000211C069BFFF7A6FE01300CD0351C2269B9
:1036B000AB1B93420ADA29780598069A079FB84708
:1036C00001350130F3D10122504217E02668B107DD
:1036D00005D4099BE068984210DA181C0EE000251A
:1036E000E7680998391A8D42F3DA617E0598069ADF
:1036F000079EB0470130E6D00135F1E70BB0F0BDD1
:10370000614000007240000038B5084C051C0020E4
:103710002060081C111C1A1CFEF7D5FB431C03D1AA
:103720002368002B00D02B6038BDC046140B00204E
:1037300038B5074C0023051C081C2360FEF7A8FBC6
:10374000431C03D12168002900D0296038BDC04640
:10375000140B0020F7B50C1C0969051C00293ED08C
:10376000002804D08269002A01D1FFF737F94B4BBA
:103770009C4201D16C6808E04948844201D1AC68A0
:1037800003E0484EB44200D1EC68A389002B26D058
:103790001F0766D48022100167681843A081002F9C
:1037A00002DC266C002E1ADDE76A002F17D080227B
:1037B000002152012E681A40296001D0626D16E086
:1037C000281C216A0123B847021C431C0FD12B6817
:1037D000002B0CD01D2B01D0162B02D12E60002007
:1037E0005BE0A58940200543A581101C55E0A78911
:1037F0007F0706D56168636B521A002B01D0206CDD
:10380000121A216A281C0023E76AB847411C0DD10F
:103810002A68002A0AD01D2A08D0162A06D0A689AE
:1038200040252E43A6810124604236E02369A78902
:10383000002161602360FF0405D5411C02D12A6884
:10384000002A00D16065616B2E600029C7D0201C62
:103850004430814202D0281C00F026F8002060632A
:103860001BE02669002EBAD027680022B91B0191FF
:103870002660990700D16269A26001980028AEDD38
:10388000281C216A321C019BA76AB8470028C6DDA4
:10389000019B3618191A0191EFE7FEBD803F000029
:1038A000A03F0000C03F000030B5002940D00439DF
:1038B0000B68002B00DAC9181E4A1368141C002B71
:1038C00002D14B60116033E099420FD20D684A1962
:1038D0009A4205D110682B1855680B604D6000E0C6
:1038E0004B60216024E08A4203D8131C5A68002AE6
:1038F000F9D11D685C198C420BD10C682D1958192F
:103900001D60904214D1116852686C181C605A6096
:103910000EE08C4202D90C21016009E008680D1804
:10392000954203D114685268001908604A605960D2
:1039300030BDC046CC0A00200048704788000020F7
:1039400038B5084C051C00202060081C111C1A1CEE
:10395000FEF7A2FA431C03D12368002B00D02B6092
:1039600038BDC046140B002000B5C9B28218904281
:1039700004D003788B4202D00130F8E7002000BD6C
:1039800038B5084C051C00202060081C111C1A1CAE
:10399000FEF784FA431C03D12368002B00D02B6070
:1039A00038BDC046140B0020F8B5061C0C1C151CB5
:1039B000002904D1111CFFF7DBF8041C18E0002AD1
:1039C00003D1FFF771FF2C1C12E000F013F8A8429E
:1039D0000ED2301C291CFFF7CBF8071E07D0211C84
:1039E0002A1CFFF70FF9301C211CFFF75DFF3C1C60
:1039F000201CF8BD04390B6800B5181F002B02DA33
:103A0000C8581918081F00BDF8B5C046F8BC08BC56
:103A10009E467047F8B5C046F8BC08BC9E46704745
:103A20000000000000000000FF0000000000000097
:103A3000010103000000000001010000000000007F
:103A40003C6D010000000000253032643A25303220
:103A5000643A253032640008091108006C3A00000D
:103A6000E001020C1014050002000000000000003C
:103A70000000000000000000000000000000000046
:103A80000000000000000000000000000000000036
:103A9000000000000000000000000000C003000360
:103AA000C007E003000FF81F001FFC1FE007E00342
:103AB00000000000F00FE003E00FF00F800FF81F90
:103AC000C03FFC1FF80FF00700000000781EFC0349
:103AD000701C380E800F3800E0310C1C381C380E7A
:103AE00080010000381CBC033838181CC00F380097
:103AF00070000C1C1C381C1CC00300001C38800308
:103B00003838001CE00E38003800000E1C381C1835
:103B1000C00300001C3880033838001CE00EB807D2
:103B20003800000E1C381C38800100001C3880034F
:103B3000003C000E700EF80FDC07000E381C1C381D
:103B4000000000001C388003001CC007700E381CE9
:103B5000FC0F0007F00F1C3C000000001C38800325
:103B6000000EC007380E18387C1C0007F00F383ED6
:103B7000000000001C3880030007001E1C0E0038E7
:103B80003C3C0007381CF03F000000001C3880035C
:103B90008003003CFC3F00383C3880071C38E03B89
:103BA000800100001C388003C0010038FC3F003851
:103BB0001C3880031C38003CC00300001C38800304
:103BC000E0000038000E00381C3880031C38001C50
:103BD000C0030000381C800370000038000E00385D
:103BE000383880031C38000E80010000781E8003E6
:103BF00038000C1C000E0C1C381CC001381C8C0F2B
:103C000000000000F00FFC7FFC3FFC1FC03FFC0FDA
:103C1000F01FC001F81FFC0300000000C003FC7F80
:103C2000FC3FF007C03FF007C007C001E007F80005
:103C30000000000000000000000000000000000084
:103C400000000000000000000000000053686172E6
:103C500070204C53303133423744483033202331C5
:103C600000000000050000000000000040420F00BE
:103C7000050100000000000000000000010001003C
:103C80004865617020616E6420737461636B2063AA
:103C90006F6C6C6973696F6E0A00000000000000B1
:103CA0000000000000000000000000000000000014
:103CB0000000000000000000000000000000000004
:103CC00000000000000000000000C0030003C00767
:103CD000E003000FF81F001FFC1FE007E0030000D7
:103CE0000000F00FE003E00FF00F800FF81FC03F5F
:103CF000FC1FF80FF00700000000781EFC03701C8A
:103D0000380E800F3800E0310C1C381C380E800152
:103D10000000381CBC033838181CC00F3800700075
:103D20000C1C1C381C1CC00300001C3880033838D5
:103D3000001CE00E38003800000E1C381C18C003B0
:103D400000001C3880033838001CE00EB80738002B
:103D5000000E1C381C38800100001C388003003C19
:103D6000000E700EF80FDC07000E381C1C38000027
:103D700000001C388003001CC007700E381CFC0FAC
:103D80000007F00F1C3C000000001C388003000EF0
:103D9000C007380E18387C1C0007F00F383E0000B2
:103DA00000001C3880030007001E1C0E00383C3C3D
:103DB0000007381CF03F000000001C38800380031F
:103DC000003CFC3F00383C3880071C38E03B800159
:103DD00000001C388003C0010038FC3F00381C384C
:103DE00080031C38003CC00300001C388003E00046
:103DF0000038000E00381C3880031C38001CC0033B
:103E00000000381C800370000038000E003838387D
:103E100080031C38000E80010000781E80033800EB
:103E20000C1C000E0C1C381CC001381C8C0F000030
:103E30000000F00FFC7FFC3FFC1FC03FFC0FF01F99
:103E4000C001F81FFC0300000000C003FC7FFC3F22
:103E5000F007C03FF007C007C001E007F80000000E
:103E60000000000000000000000000000000000052
:103E70000000000000000000000001000100202000
:103E8000202020202020202828282828202020200A
:103E900020202020202020202020202020208810CA
:103EA000101010101010101010101010101004042A
:103EB0000404040404040404101010101010104131
:103EC00041414141410101010101010101010101A2
:103ED0000101010101010101011010101010104237
:103EE0004242424242020202020202020202020272
:103EF0000202020202020202021010101020000050
:103F000000000000000000000000000000000000B1
:103F100000000000000000000000000000000000A1
:103F20000000000000000000000000000000000091
:103F30000000000000000000000000000000000081
:103F40000000000000000000000000000000000071
:103F50000000000000000000000000000000000061
:103F60000000000000000000000000000000000051
:103F70000000000000000000000000000000000041
:103F80000000000000000000000000000000000031
:103F90000000000000000000000000000000000021
:103FA0000000000000000000000000000000000011
:103FB0000000000000000000000000000000000001
:103FC00000000000000000000000000000000000F1
:103FD00000000000000000000000000000000000E1
:103FE00043000000200000201F0000001C00000013
:103FF0001F0000001E0000001F0000001E00000047
:104000001F0000001F0000001E0000001F00000035
:104010001E0000001F0000001F0000001D00000027
:104020001F0000001E0000001F0000001E00000016
:104030001F0000001F0000001E0000001F00000005
:104040001E0000001F0000006D0100006E01000056
:10405000232D302B2000686C4C0065666745464771
:1040600000303132333435363738394142434445F4
:104070004600303132333435363738396162636463
:0840800065660000000000006D
:08408800D8C0FF7F0100000019
:10409000010000006D1B0000000000007A010020FC
:1040A000001000000080000000366E017D3E000020
:1040B00000000000803F0000A03F0000C03F000063
:1040C00000000000000000000000000000000000F0
:1040D000E03F0000000000000000000000000000C1
:1040E00000000000000000000000000000000000D0
:1040F00000000000000000000000000000000000C0
:1041000000000000000000000000000000000000AF
:10411000000000002000002001000000000000005E
:104120004A00000000000000000000000000000045
:104130000000000000000000000000004A00000035
:10414000000000000000000000000000000000006F
:104150000000000000000000290100000101000033
:04000003000025F1E3
:00000001FF
